{
  "_format": "hh-sol-artifact-1",
  "contractName": "Talent",
  "sourceName": "contracts/TalentMarketplace.sol",
  "abi": [
    {
      "inputs": [],
      "stateMutability": "nonpayable",
      "type": "constructor"
    },
    {
      "anonymous": false,
      "inputs": [
        {
          "indexed": true,
          "internalType": "address",
          "name": "owner",
          "type": "address"
        },
        {
          "indexed": true,
          "internalType": "address",
          "name": "approved",
          "type": "address"
        },
        {
          "indexed": true,
          "internalType": "uint256",
          "name": "tokenId",
          "type": "uint256"
        }
      ],
      "name": "Approval",
      "type": "event"
    },
    {
      "anonymous": false,
      "inputs": [
        {
          "indexed": true,
          "internalType": "address",
          "name": "owner",
          "type": "address"
        },
        {
          "indexed": true,
          "internalType": "address",
          "name": "operator",
          "type": "address"
        },
        {
          "indexed": false,
          "internalType": "bool",
          "name": "approved",
          "type": "bool"
        }
      ],
      "name": "ApprovalForAll",
      "type": "event"
    },
    {
      "anonymous": false,
      "inputs": [
        {
          "indexed": true,
          "internalType": "uint256",
          "name": "tokenId",
          "type": "uint256"
        },
        {
          "indexed": false,
          "internalType": "address",
          "name": "artiste",
          "type": "address"
        },
        {
          "indexed": false,
          "internalType": "address",
          "name": "owner",
          "type": "address"
        },
        {
          "indexed": false,
          "internalType": "bool",
          "name": "contacted",
          "type": "bool"
        }
      ],
      "name": "MarketItemCreated",
      "type": "event"
    },
    {
      "anonymous": false,
      "inputs": [
        {
          "indexed": true,
          "internalType": "address",
          "name": "from",
          "type": "address"
        },
        {
          "indexed": true,
          "internalType": "address",
          "name": "to",
          "type": "address"
        },
        {
          "indexed": true,
          "internalType": "uint256",
          "name": "tokenId",
          "type": "uint256"
        }
      ],
      "name": "Transfer",
      "type": "event"
    },
    {
      "anonymous": false,
      "inputs": [
        {
          "indexed": true,
          "internalType": "uint256",
          "name": "tokenId",
          "type": "uint256"
        },
        {
          "indexed": false,
          "internalType": "address",
          "name": "usersAdd",
          "type": "address"
        },
        {
          "indexed": false,
          "internalType": "address",
          "name": "ownerAdd",
          "type": "address"
        }
      ],
      "name": "ViewCreated",
      "type": "event"
    },
    {
      "inputs": [
        {
          "internalType": "address",
          "name": "to",
          "type": "address"
        },
        {
          "internalType": "uint256",
          "name": "tokenId",
          "type": "uint256"
        }
      ],
      "name": "approve",
      "outputs": [],
      "stateMutability": "nonpayable",
      "type": "function"
    },
    {
      "inputs": [
        {
          "internalType": "address",
          "name": "owner",
          "type": "address"
        }
      ],
      "name": "balanceOf",
      "outputs": [
        {
          "internalType": "uint256",
          "name": "",
          "type": "uint256"
        }
      ],
      "stateMutability": "view",
      "type": "function"
    },
    {
      "inputs": [
        {
          "internalType": "uint256",
          "name": "tokenId",
          "type": "uint256"
        }
      ],
      "name": "createMarketSale",
      "outputs": [],
      "stateMutability": "payable",
      "type": "function"
    },
    {
      "inputs": [
        {
          "internalType": "string",
          "name": "tokenURI",
          "type": "string"
        }
      ],
      "name": "createToken",
      "outputs": [
        {
          "internalType": "uint256",
          "name": "",
          "type": "uint256"
        }
      ],
      "stateMutability": "payable",
      "type": "function"
    },
    {
      "inputs": [
        {
          "internalType": "uint256",
          "name": "tokenId",
          "type": "uint256"
        }
      ],
      "name": "createView",
      "outputs": [],
      "stateMutability": "nonpayable",
      "type": "function"
    },
    {
      "inputs": [],
      "name": "fetchAllViews",
      "outputs": [
        {
          "components": [
            {
              "internalType": "uint256",
              "name": "tokenId",
              "type": "uint256"
            },
            {
              "internalType": "address",
              "name": "usersAdd",
              "type": "address"
            },
            {
              "internalType": "address",
              "name": "ownerAdd",
              "type": "address"
            }
          ],
          "internalType": "struct Talent.Watched[]",
          "name": "",
          "type": "tuple[]"
        }
      ],
      "stateMutability": "view",
      "type": "function"
    },
    {
      "inputs": [],
      "name": "fetchItemsListed",
      "outputs": [
        {
          "components": [
            {
              "internalType": "uint256",
              "name": "tokenId",
              "type": "uint256"
            },
            {
              "internalType": "address payable",
              "name": "artiste",
              "type": "address"
            },
            {
              "internalType": "address payable",
              "name": "owner",
              "type": "address"
            },
            {
              "internalType": "bool",
              "name": "contacted",
              "type": "bool"
            }
          ],
          "internalType": "struct Talent.MarketItem[]",
          "name": "",
          "type": "tuple[]"
        }
      ],
      "stateMutability": "view",
      "type": "function"
    },
    {
      "inputs": [],
      "name": "fetchMarketItems",
      "outputs": [
        {
          "components": [
            {
              "internalType": "uint256",
              "name": "tokenId",
              "type": "uint256"
            },
            {
              "internalType": "address payable",
              "name": "artiste",
              "type": "address"
            },
            {
              "internalType": "address payable",
              "name": "owner",
              "type": "address"
            },
            {
              "internalType": "bool",
              "name": "contacted",
              "type": "bool"
            }
          ],
          "internalType": "struct Talent.MarketItem[]",
          "name": "",
          "type": "tuple[]"
        }
      ],
      "stateMutability": "view",
      "type": "function"
    },
    {
      "inputs": [],
      "name": "fetchMyNFTs",
      "outputs": [
        {
          "components": [
            {
              "internalType": "uint256",
              "name": "tokenId",
              "type": "uint256"
            },
            {
              "internalType": "address payable",
              "name": "artiste",
              "type": "address"
            },
            {
              "internalType": "address payable",
              "name": "owner",
              "type": "address"
            },
            {
              "internalType": "bool",
              "name": "contacted",
              "type": "bool"
            }
          ],
          "internalType": "struct Talent.MarketItem[]",
          "name": "",
          "type": "tuple[]"
        }
      ],
      "stateMutability": "view",
      "type": "function"
    },
    {
      "inputs": [
        {
          "internalType": "uint256",
          "name": "_tokenId",
          "type": "uint256"
        }
      ],
      "name": "fetchNFT",
      "outputs": [
        {
          "components": [
            {
              "internalType": "uint256",
              "name": "tokenId",
              "type": "uint256"
            },
            {
              "internalType": "address payable",
              "name": "artiste",
              "type": "address"
            },
            {
              "internalType": "address payable",
              "name": "owner",
              "type": "address"
            },
            {
              "internalType": "bool",
              "name": "contacted",
              "type": "bool"
            }
          ],
          "internalType": "struct Talent.MarketItem[]",
          "name": "",
          "type": "tuple[]"
        }
      ],
      "stateMutability": "view",
      "type": "function"
    },
    {
      "inputs": [
        {
          "internalType": "uint256",
          "name": "_tokenId",
          "type": "uint256"
        }
      ],
      "name": "fetchOneNFT",
      "outputs": [
        {
          "components": [
            {
              "internalType": "uint256",
              "name": "tokenId",
              "type": "uint256"
            },
            {
              "internalType": "address payable",
              "name": "artiste",
              "type": "address"
            },
            {
              "internalType": "address payable",
              "name": "owner",
              "type": "address"
            },
            {
              "internalType": "bool",
              "name": "contacted",
              "type": "bool"
            }
          ],
          "internalType": "struct Talent.MarketItem[]",
          "name": "",
          "type": "tuple[]"
        }
      ],
      "stateMutability": "view",
      "type": "function"
    },
    {
      "inputs": [
        {
          "internalType": "uint256",
          "name": "tokenId",
          "type": "uint256"
        }
      ],
      "name": "getApproved",
      "outputs": [
        {
          "internalType": "address",
          "name": "",
          "type": "address"
        }
      ],
      "stateMutability": "view",
      "type": "function"
    },
    {
      "inputs": [
        {
          "internalType": "uint256",
          "name": "tokenId",
          "type": "uint256"
        }
      ],
      "name": "getMusicViews",
      "outputs": [
        {
          "internalType": "uint256",
          "name": "",
          "type": "uint256"
        }
      ],
      "stateMutability": "view",
      "type": "function"
    },
    {
      "inputs": [],
      "name": "getTotalViews",
      "outputs": [
        {
          "internalType": "uint256",
          "name": "",
          "type": "uint256"
        }
      ],
      "stateMutability": "view",
      "type": "function"
    },
    {
      "inputs": [
        {
          "internalType": "address",
          "name": "owner",
          "type": "address"
        },
        {
          "internalType": "address",
          "name": "operator",
          "type": "address"
        }
      ],
      "name": "isApprovedForAll",
      "outputs": [
        {
          "internalType": "bool",
          "name": "",
          "type": "bool"
        }
      ],
      "stateMutability": "view",
      "type": "function"
    },
    {
      "inputs": [],
      "name": "name",
      "outputs": [
        {
          "internalType": "string",
          "name": "",
          "type": "string"
        }
      ],
      "stateMutability": "view",
      "type": "function"
    },
    {
      "inputs": [
        {
          "internalType": "uint256",
          "name": "tokenId",
          "type": "uint256"
        }
      ],
      "name": "ownerOf",
      "outputs": [
        {
          "internalType": "address",
          "name": "",
          "type": "address"
        }
      ],
      "stateMutability": "view",
      "type": "function"
    },
    {
      "inputs": [
        {
          "internalType": "address",
          "name": "from",
          "type": "address"
        },
        {
          "internalType": "address",
          "name": "to",
          "type": "address"
        },
        {
          "internalType": "uint256",
          "name": "tokenId",
          "type": "uint256"
        }
      ],
      "name": "safeTransferFrom",
      "outputs": [],
      "stateMutability": "nonpayable",
      "type": "function"
    },
    {
      "inputs": [
        {
          "internalType": "address",
          "name": "from",
          "type": "address"
        },
        {
          "internalType": "address",
          "name": "to",
          "type": "address"
        },
        {
          "internalType": "uint256",
          "name": "tokenId",
          "type": "uint256"
        },
        {
          "internalType": "bytes",
          "name": "_data",
          "type": "bytes"
        }
      ],
      "name": "safeTransferFrom",
      "outputs": [],
      "stateMutability": "nonpayable",
      "type": "function"
    },
    {
      "inputs": [
        {
          "internalType": "address",
          "name": "operator",
          "type": "address"
        },
        {
          "internalType": "bool",
          "name": "approved",
          "type": "bool"
        }
      ],
      "name": "setApprovalForAll",
      "outputs": [],
      "stateMutability": "nonpayable",
      "type": "function"
    },
    {
      "inputs": [
        {
          "internalType": "bytes4",
          "name": "interfaceId",
          "type": "bytes4"
        }
      ],
      "name": "supportsInterface",
      "outputs": [
        {
          "internalType": "bool",
          "name": "",
          "type": "bool"
        }
      ],
      "stateMutability": "view",
      "type": "function"
    },
    {
      "inputs": [],
      "name": "symbol",
      "outputs": [
        {
          "internalType": "string",
          "name": "",
          "type": "string"
        }
      ],
      "stateMutability": "view",
      "type": "function"
    },
    {
      "inputs": [
        {
          "internalType": "uint256",
          "name": "tokenId",
          "type": "uint256"
        }
      ],
      "name": "tokenURI",
      "outputs": [
        {
          "internalType": "string",
          "name": "",
          "type": "string"
        }
      ],
      "stateMutability": "view",
      "type": "function"
    },
    {
      "inputs": [
        {
          "internalType": "address",
          "name": "from",
          "type": "address"
        },
        {
          "internalType": "address",
          "name": "to",
          "type": "address"
        },
        {
          "internalType": "uint256",
          "name": "tokenId",
          "type": "uint256"
        }
      ],
      "name": "transferFrom",
      "outputs": [],
      "stateMutability": "nonpayable",
      "type": "function"
    }
  ],
  "bytecode": "0x60806040523480156200001157600080fd5b50604080518082018252600d81526c54616c656e74204d757369636160981b602080830191825283518085019094526004845263746d757360e01b908401528151919291620000639160009162000094565b5080516200007990600190602084019062000094565b5050600980546001600160a01b031916331790555062000177565b828054620000a2906200013a565b90600052602060002090601f016020900481019282620000c6576000855562000111565b82601f10620000e157805160ff191683800117855562000111565b8280016001018555821562000111579182015b8281111562000111578251825591602001919060010190620000f4565b506200011f92915062000123565b5090565b5b808211156200011f576000815560010162000124565b600181811c908216806200014f57607f821691505b602082108114156200017157634e487b7160e01b600052602260045260246000fd5b50919050565b6125b080620001876000396000f3fe60806040526004361061014b5760003560e01c80636352211e116100b6578063be9af5361161006f578063be9af536146103a5578063c60d13b0146103d7578063c87b56dd146103f7578063deb1250d14610417578063dfd625d314610437578063e985e9c51461044c57600080fd5b80636352211e146102f057806370a082311461031057806395d89b4114610330578063a22cb46514610345578063b796fc6814610365578063b88d4fde1461038557600080fd5b8063202e374011610108578063202e37401461024557806323b872dd1461025a57806342842e0e1461027a57806345576f941461029a57806345f8fa80146102bb578063572e2647146102d057600080fd5b806301ffc9a71461015057806306fdde0314610185578063081812fc146101a7578063095ea7b3146101df57806309994260146102015780630f08efe014610223575b600080fd5b34801561015c57600080fd5b5061017061016b366004611f96565b610495565b60405190151581526020015b60405180910390f35b34801561019157600080fd5b5061019a6104e7565b60405161017c919061200b565b3480156101b357600080fd5b506101c76101c236600461201e565b610579565b6040516001600160a01b03909116815260200161017c565b3480156101eb57600080fd5b506101ff6101fa366004612053565b610606565b005b34801561020d57600080fd5b5061021661071c565b60405161017c919061207d565b34801561022f57600080fd5b50610238610880565b60405161017c91906120e3565b34801561025157600080fd5b506102386109f3565b34801561026657600080fd5b506101ff610275366004612148565b610bba565b34801561028657600080fd5b506101ff610295366004612148565b610beb565b6102ad6102a8366004612210565b610c06565b60405190815260200161017c565b3480156102c757600080fd5b50610238610c40565b3480156102dc57600080fd5b506102ad6102eb36600461201e565b610e07565b3480156102fc57600080fd5b506101c761030b36600461201e565b610e71565b34801561031c57600080fd5b506102ad61032b366004612259565b610ee8565b34801561033c57600080fd5b5061019a610f6f565b34801561035157600080fd5b506101ff610360366004612274565b610f7e565b34801561037157600080fd5b5061023861038036600461201e565b610f8d565b34801561039157600080fd5b506101ff6103a03660046122b0565b611148565b6101ff6103b336600461201e565b6000908152600a60205260409020600201805460ff60a01b1916600160a01b179055565b3480156103e357600080fd5b506101ff6103f236600461201e565b611180565b34801561040357600080fd5b5061019a61041236600461201e565b61122d565b34801561042357600080fd5b5061023861043236600461201e565b6113a4565b34801561044357600080fd5b506102ad611555565b34801561045857600080fd5b5061017061046736600461232c565b6001600160a01b03918216600090815260056020908152604080832093909416825291909152205460ff1690565b60006001600160e01b031982166380ac58cd60e01b14806104c657506001600160e01b03198216635b5e139f60e01b145b806104e157506301ffc9a760e01b6001600160e01b03198316145b92915050565b6060600080546104f69061235f565b80601f01602080910402602001604051908101604052809291908181526020018280546105229061235f565b801561056f5780601f106105445761010080835404028352916020019161056f565b820191906000526020600020905b81548152906001019060200180831161055257829003601f168201915b5050505050905090565b600061058482611561565b6105ea5760405162461bcd60e51b815260206004820152602c60248201527f4552433732313a20617070726f76656420717565727920666f72206e6f6e657860448201526b34b9ba32b73a103a37b5b2b760a11b60648201526084015b60405180910390fd5b506000908152600460205260409020546001600160a01b031690565b600061061182610e71565b9050806001600160a01b0316836001600160a01b0316141561067f5760405162461bcd60e51b815260206004820152602160248201527f4552433732313a20617070726f76616c20746f2063757272656e74206f776e656044820152603960f91b60648201526084016105e1565b336001600160a01b038216148061069b575061069b8133610467565b61070d5760405162461bcd60e51b815260206004820152603860248201527f4552433732313a20617070726f76652063616c6c6572206973206e6f74206f7760448201527f6e6572206e6f7220617070726f76656420666f7220616c6c000000000000000060648201526084016105e1565b610717838361157e565b505050565b6060600061072960085490565b9050600061073660085490565b90506000808267ffffffffffffffff81111561075457610754612184565b60405190808252806020026020018201604052801561079f57816020015b60408051606081018252600080825260208083018290529282015282526000199092019101816107725790505b50905060005b848110156108775730600b60006107bd8460016123b0565b81526020810191909152604001600020600201546001600160a01b031614156108655760006107ed8260016123b0565b6000818152600b602090815260409182902082516060810184528154815260018201546001600160a01b03908116938201939093526002820154909216928201929092528551929350909185908790811061084a5761084a6123c8565b60209081029190910101526108606001866123b0565b945050505b8061086f816123de565b9150506107a5565b50949350505050565b6060600061088d60075490565b9050600061089a60075490565b90506000808267ffffffffffffffff8111156108b8576108b8612184565b60405190808252806020026020018201604052801561090a57816020015b6040805160808101825260008082526020808301829052928201819052606082015282526000199092019101816108d65790505b50905060005b848110156108775730600a60006109288460016123b0565b81526020810191909152604001600020600201546001600160a01b031614156109e15760006109588260016123b0565b6000818152600a602090815260409182902082516080810184528154815260018201546001600160a01b0390811693820193909352600282015492831693810193909352600160a01b90910460ff16151560608301528551929350918590879081106109c6576109c66123c8565b60209081029190910101526109dc6001866123b0565b945050505b806109eb816123de565b915050610910565b60606000610a0060075490565b905060008060005b83811015610a635733600a6000610a208460016123b0565b81526020810191909152604001600020600201546001600160a01b03161415610a5157610a4e6001846123b0565b92505b80610a5b816123de565b915050610a08565b5060008267ffffffffffffffff811115610a7f57610a7f612184565b604051908082528060200260200182016040528015610ad157816020015b604080516080810182526000808252602080830182905292820181905260608201528252600019909201910181610a9d5790505b50905060005b848110156108775733600a6000610aef8460016123b0565b81526020810191909152604001600020600201546001600160a01b03161415610ba8576000610b1f8260016123b0565b6000818152600a602090815260409182902082516080810184528154815260018201546001600160a01b0390811693820193909352600282015492831693810193909352600160a01b90910460ff1615156060830152855192935091859087908110610b8d57610b8d6123c8565b6020908102919091010152610ba36001866123b0565b945050505b80610bb2816123de565b915050610ad7565b610bc433826115ec565b610be05760405162461bcd60e51b81526004016105e1906123f9565b6107178383836116d5565b61071783838360405180602001604052806000815250611148565b6000610c16600780546001019055565b6000610c2160075490565b9050610c2d3382611871565b610c3781846119a4565b6104e181611a2f565b60606000610c4d60075490565b905060008060005b83811015610cb05733600a6000610c6d8460016123b0565b81526020810191909152604001600020600101546001600160a01b03161415610c9e57610c9b6001846123b0565b92505b80610ca8816123de565b915050610c55565b5060008267ffffffffffffffff811115610ccc57610ccc612184565b604051908082528060200260200182016040528015610d1e57816020015b604080516080810182526000808252602080830182905292820181905260608201528252600019909201910181610cea5790505b50905060005b848110156108775733600a6000610d3c8460016123b0565b81526020810191909152604001600020600101546001600160a01b03161415610df5576000610d6c8260016123b0565b6000818152600a602090815260409182902082516080810184528154815260018201546001600160a01b0390811693820193909352600282015492831693810193909352600160a01b90910460ff1615156060830152855192935091859087908110610dda57610dda6123c8565b6020908102919091010152610df06001866123b0565b945050505b80610dff816123de565b915050610d24565b600080610e1360085490565b90506000805b82811015610e695784600b6000610e318460016123b0565b8152602001908152602001600020600001541415610e5757610e546001836123b0565b91505b80610e61816123de565b915050610e19565b509392505050565b6000818152600260205260408120546001600160a01b0316806104e15760405162461bcd60e51b815260206004820152602960248201527f4552433732313a206f776e657220717565727920666f72206e6f6e657869737460448201526832b73a103a37b5b2b760b91b60648201526084016105e1565b60006001600160a01b038216610f535760405162461bcd60e51b815260206004820152602a60248201527f4552433732313a2062616c616e636520717565727920666f7220746865207a65604482015269726f206164647265737360b01b60648201526084016105e1565b506001600160a01b031660009081526003602052604090205490565b6060600180546104f69061235f565b610f89338383611b02565b5050565b60606000610f9a60075490565b905060008060005b83811015610ff25785600a6000610fba8460016123b0565b8152602001908152602001600020600001541415610fe057610fdd6001846123b0565b92505b80610fea816123de565b915050610fa2565b5060008267ffffffffffffffff81111561100e5761100e612184565b60405190808252806020026020018201604052801561106057816020015b60408051608081018252600080825260208083018290529282018190526060820152825260001990920191018161102c5790505b50905060005b8481101561113e5786600a600061107e8460016123b0565b815260200190815260200160002060000154141561112c5760006110a38260016123b0565b6000818152600a602090815260409182902082516080810184528154815260018201546001600160a01b0390811693820193909352600282015492831693810193909352600160a01b90910460ff1615156060830152855192935091859087908110611111576111116123c8565b60209081029190910101526111276001866123b0565b945050505b80611136816123de565b915050611066565b5095945050505050565b61115233836115ec565b61116e5760405162461bcd60e51b81526004016105e1906123f9565b61117a84848484611bd1565b50505050565b60408051606081018252828152336020808301828152308486018181526000888152600b85528790209551865591516001860180546001600160a01b03199081166001600160a01b03938416179091559251600290960180549093169516949094179055835191825281019190915282917ff215aca84a76dcac7e7525b11b5e851d4198a2235adfb59b8de6b74328d6574d910160405180910390a261122a600880546001019055565b50565b606061123882611561565b61129e5760405162461bcd60e51b815260206004820152603160248201527f45524337323155524953746f726167653a2055524920717565727920666f72206044820152703737b732bc34b9ba32b73a103a37b5b2b760791b60648201526084016105e1565b600082815260066020526040812080546112b79061235f565b80601f01602080910402602001604051908101604052809291908181526020018280546112e39061235f565b80156113305780601f1061130557610100808354040283529160200191611330565b820191906000526020600020905b81548152906001019060200180831161131357829003601f168201915b50505050509050600061134e60408051602081019091526000815290565b9050805160001415611361575092915050565b81511561139357808260405160200161137b92919061244a565b60405160208183030381529060405292505050919050565b61139c84611c04565b949350505050565b606060006113b160075490565b905060008060005b838110156114095785600a60006113d18460016123b0565b81526020019081526020016000206000015414156113f7576113f46001846123b0565b92505b80611401816123de565b9150506113b9565b5060008267ffffffffffffffff81111561142557611425612184565b60405190808252806020026020018201604052801561147757816020015b6040805160808101825260008082526020808301829052928201819052606082015282526000199092019101816114435790505b50905060005b8481101561113e5786600a60006114958460016123b0565b81526020019081526020016000206000015414156115435760006114ba8260016123b0565b6000818152600a602090815260409182902082516080810184528154815260018201546001600160a01b0390811693820193909352600282015492831693810193909352600160a01b90910460ff1615156060830152855192935091859087908110611528576115286123c8565b602090810291909101015261153e6001866123b0565b945050505b8061154d816123de565b91505061147d565b6000806104e160085490565b6000908152600260205260409020546001600160a01b0316151590565b600081815260046020526040902080546001600160a01b0319166001600160a01b03841690811790915581906115b382610e71565b6001600160a01b03167f8c5be1e5ebec7d5bd14f71427d1e84f3dd0314c0f7b2291e5b200ac8c7c3b92560405160405180910390a45050565b60006115f782611561565b6116585760405162461bcd60e51b815260206004820152602c60248201527f4552433732313a206f70657261746f7220717565727920666f72206e6f6e657860448201526b34b9ba32b73a103a37b5b2b760a11b60648201526084016105e1565b600061166383610e71565b9050806001600160a01b0316846001600160a01b031614806116aa57506001600160a01b0380821660009081526005602090815260408083209388168352929052205460ff165b8061139c5750836001600160a01b03166116c384610579565b6001600160a01b031614949350505050565b826001600160a01b03166116e882610e71565b6001600160a01b03161461174c5760405162461bcd60e51b815260206004820152602560248201527f4552433732313a207472616e736665722066726f6d20696e636f72726563742060448201526437bbb732b960d91b60648201526084016105e1565b6001600160a01b0382166117ae5760405162461bcd60e51b8152602060048201526024808201527f4552433732313a207472616e7366657220746f20746865207a65726f206164646044820152637265737360e01b60648201526084016105e1565b6117b960008261157e565b6001600160a01b03831660009081526003602052604081208054600192906117e2908490612479565b90915550506001600160a01b03821660009081526003602052604081208054600192906118109084906123b0565b909155505060008181526002602052604080822080546001600160a01b0319166001600160a01b0386811691821790925591518493918716917fddf252ad1be2c89b69c2b068fc378daa952ba7f163c4a11628f55a4df523b3ef91a4505050565b6001600160a01b0382166118c75760405162461bcd60e51b815260206004820181905260248201527f4552433732313a206d696e7420746f20746865207a65726f206164647265737360448201526064016105e1565b6118d081611561565b1561191d5760405162461bcd60e51b815260206004820152601c60248201527f4552433732313a20746f6b656e20616c7265616479206d696e7465640000000060448201526064016105e1565b6001600160a01b03821660009081526003602052604081208054600192906119469084906123b0565b909155505060008181526002602052604080822080546001600160a01b0319166001600160a01b03861690811790915590518392907fddf252ad1be2c89b69c2b068fc378daa952ba7f163c4a11628f55a4df523b3ef908290a45050565b6119ad82611561565b611a105760405162461bcd60e51b815260206004820152602e60248201527f45524337323155524953746f726167653a2055524920736574206f66206e6f6e60448201526d32bc34b9ba32b73a103a37b5b2b760911b60648201526084016105e1565b6000828152600660209081526040909120825161071792840190611ee7565b6040805160808101825282815233602080830182815230848601818152600060608701818152898252600a909552969096209451855590516001850180546001600160a01b039283166001600160a01b031990911617905594516002909401805492511515600160a01b026001600160a81b0319909316949095169390931717909255611abd9190836116d5565b60408051338152306020820152600081830152905182917fac1bd62278cac1e3927d9af6d75c2a00c32db78ed0bb3a721d009050f786b7e8919081900360600190a250565b816001600160a01b0316836001600160a01b03161415611b645760405162461bcd60e51b815260206004820152601960248201527f4552433732313a20617070726f766520746f2063616c6c65720000000000000060448201526064016105e1565b6001600160a01b03838116600081815260056020908152604080832094871680845294825291829020805460ff191686151590811790915591519182527f17307eab39ab6107e8899845ad3d59bd9653f200f220920489ca2b5937696c31910160405180910390a3505050565b611bdc8484846116d5565b611be884848484611cdc565b61117a5760405162461bcd60e51b81526004016105e190612490565b6060611c0f82611561565b611c735760405162461bcd60e51b815260206004820152602f60248201527f4552433732314d657461646174613a2055524920717565727920666f72206e6f60448201526e3732bc34b9ba32b73a103a37b5b2b760891b60648201526084016105e1565b6000611c8a60408051602081019091526000815290565b90506000815111611caa5760405180602001604052806000815250611cd5565b80611cb484611de9565b604051602001611cc592919061244a565b6040516020818303038152906040525b9392505050565b60006001600160a01b0384163b15611dde57604051630a85bd0160e11b81526001600160a01b0385169063150b7a0290611d209033908990889088906004016124e2565b602060405180830381600087803b158015611d3a57600080fd5b505af1925050508015611d6a575060408051601f3d908101601f19168201909252611d679181019061251f565b60015b611dc4573d808015611d98576040519150601f19603f3d011682016040523d82523d6000602084013e611d9d565b606091505b508051611dbc5760405162461bcd60e51b81526004016105e190612490565b805181602001fd5b6001600160e01b031916630a85bd0160e11b14905061139c565b506001949350505050565b606081611e0d5750506040805180820190915260018152600360fc1b602082015290565b8160005b8115611e375780611e21816123de565b9150611e309050600a83612552565b9150611e11565b60008167ffffffffffffffff811115611e5257611e52612184565b6040519080825280601f01601f191660200182016040528015611e7c576020820181803683370190505b5090505b841561139c57611e91600183612479565b9150611e9e600a86612566565b611ea99060306123b0565b60f81b818381518110611ebe57611ebe6123c8565b60200101906001600160f81b031916908160001a905350611ee0600a86612552565b9450611e80565b828054611ef39061235f565b90600052602060002090601f016020900481019282611f155760008555611f5b565b82601f10611f2e57805160ff1916838001178555611f5b565b82800160010185558215611f5b579182015b82811115611f5b578251825591602001919060010190611f40565b50611f67929150611f6b565b5090565b5b80821115611f675760008155600101611f6c565b6001600160e01b03198116811461122a57600080fd5b600060208284031215611fa857600080fd5b8135611cd581611f80565b60005b83811015611fce578181015183820152602001611fb6565b8381111561117a5750506000910152565b60008151808452611ff7816020860160208601611fb3565b601f01601f19169290920160200192915050565b602081526000611cd56020830184611fdf565b60006020828403121561203057600080fd5b5035919050565b80356001600160a01b038116811461204e57600080fd5b919050565b6000806040838503121561206657600080fd5b61206f83612037565b946020939093013593505050565b602080825282518282018190526000919060409081850190868401855b828110156120d657815180518552868101516001600160a01b03908116888701529086015116858501526060909301929085019060010161209a565b5091979650505050505050565b602080825282518282018190526000919060409081850190868401855b828110156120d657815180518552868101516001600160a01b039081168887015286820151168686015260609081015115159085015260809093019290850190600101612100565b60008060006060848603121561215d57600080fd5b61216684612037565b925061217460208501612037565b9150604084013590509250925092565b634e487b7160e01b600052604160045260246000fd5b600067ffffffffffffffff808411156121b5576121b5612184565b604051601f8501601f19908116603f011681019082821181831017156121dd576121dd612184565b816040528093508581528686860111156121f657600080fd5b858560208301376000602087830101525050509392505050565b60006020828403121561222257600080fd5b813567ffffffffffffffff81111561223957600080fd5b8201601f8101841361224a57600080fd5b61139c8482356020840161219a565b60006020828403121561226b57600080fd5b611cd582612037565b6000806040838503121561228757600080fd5b61229083612037565b9150602083013580151581146122a557600080fd5b809150509250929050565b600080600080608085870312156122c657600080fd5b6122cf85612037565b93506122dd60208601612037565b925060408501359150606085013567ffffffffffffffff81111561230057600080fd5b8501601f8101871361231157600080fd5b6123208782356020840161219a565b91505092959194509250565b6000806040838503121561233f57600080fd5b61234883612037565b915061235660208401612037565b90509250929050565b600181811c9082168061237357607f821691505b6020821081141561239457634e487b7160e01b600052602260045260246000fd5b50919050565b634e487b7160e01b600052601160045260246000fd5b600082198211156123c3576123c361239a565b500190565b634e487b7160e01b600052603260045260246000fd5b60006000198214156123f2576123f261239a565b5060010190565b60208082526031908201527f4552433732313a207472616e736665722063616c6c6572206973206e6f74206f6040820152701ddb995c881b9bdc88185c1c1c9bdd9959607a1b606082015260800190565b6000835161245c818460208801611fb3565b835190830190612470818360208801611fb3565b01949350505050565b60008282101561248b5761248b61239a565b500390565b60208082526032908201527f4552433732313a207472616e7366657220746f206e6f6e20455243373231526560408201527131b2b4bb32b91034b6b83632b6b2b73a32b960711b606082015260800190565b6001600160a01b038581168252841660208201526040810183905260806060820181905260009061251590830184611fdf565b9695505050505050565b60006020828403121561253157600080fd5b8151611cd581611f80565b634e487b7160e01b600052601260045260246000fd5b6000826125615761256161253c565b500490565b6000826125755761257561253c565b50069056fea26469706673582212204c54ef6a7b8adb6ebe0f9b6d6fb1ff89d0817b011a04eafa7ffc8fc7517b985264736f6c63430008090033",
  "linkReferences": {},
  "deployedLinkReferences": {}
}