{
  "_format": "hh-sol-artifact-1",
  "contractName": "Talent",
  "sourceName": "contracts/TalentMarketplace.sol",
  "abi": [
    {
      "inputs": [],
      "stateMutability": "nonpayable",
      "type": "constructor"
    },
    {
      "anonymous": false,
      "inputs": [
        {
          "indexed": true,
          "internalType": "address",
          "name": "owner",
          "type": "address"
        },
        {
          "indexed": true,
          "internalType": "address",
          "name": "approved",
          "type": "address"
        },
        {
          "indexed": true,
          "internalType": "uint256",
          "name": "tokenId",
          "type": "uint256"
        }
      ],
      "name": "Approval",
      "type": "event"
    },
    {
      "anonymous": false,
      "inputs": [
        {
          "indexed": true,
          "internalType": "address",
          "name": "owner",
          "type": "address"
        },
        {
          "indexed": true,
          "internalType": "address",
          "name": "operator",
          "type": "address"
        },
        {
          "indexed": false,
          "internalType": "bool",
          "name": "approved",
          "type": "bool"
        }
      ],
      "name": "ApprovalForAll",
      "type": "event"
    },
    {
      "anonymous": false,
      "inputs": [
        {
          "indexed": true,
          "internalType": "uint256",
          "name": "tokenId",
          "type": "uint256"
        },
        {
          "indexed": false,
          "internalType": "address",
          "name": "artiste",
          "type": "address"
        },
        {
          "indexed": false,
          "internalType": "address",
          "name": "owner",
          "type": "address"
        },
        {
          "indexed": false,
          "internalType": "bool",
          "name": "contacted",
          "type": "bool"
        }
      ],
      "name": "MarketItemCreated",
      "type": "event"
    },
    {
      "anonymous": false,
      "inputs": [
        {
          "indexed": true,
          "internalType": "address",
          "name": "from",
          "type": "address"
        },
        {
          "indexed": true,
          "internalType": "address",
          "name": "to",
          "type": "address"
        },
        {
          "indexed": true,
          "internalType": "uint256",
          "name": "tokenId",
          "type": "uint256"
        }
      ],
      "name": "Transfer",
      "type": "event"
    },
    {
      "anonymous": false,
      "inputs": [
        {
          "indexed": true,
          "internalType": "uint256",
          "name": "tokenId",
          "type": "uint256"
        },
        {
          "indexed": false,
          "internalType": "address",
          "name": "usersAdd",
          "type": "address"
        },
        {
          "indexed": false,
          "internalType": "address",
          "name": "ownerAdd",
          "type": "address"
        },
        {
          "indexed": false,
          "internalType": "bool",
          "name": "haveWatched",
          "type": "bool"
        }
      ],
      "name": "ViewCreated",
      "type": "event"
    },
    {
      "inputs": [
        {
          "internalType": "uint256",
          "name": "tokenId",
          "type": "uint256"
        }
      ],
      "name": "NFTView",
      "outputs": [
        {
          "internalType": "uint256",
          "name": "",
          "type": "uint256"
        }
      ],
      "stateMutability": "view",
      "type": "function"
    },
    {
      "inputs": [
        {
          "internalType": "address",
          "name": "to",
          "type": "address"
        },
        {
          "internalType": "uint256",
          "name": "tokenId",
          "type": "uint256"
        }
      ],
      "name": "approve",
      "outputs": [],
      "stateMutability": "nonpayable",
      "type": "function"
    },
    {
      "inputs": [
        {
          "internalType": "address",
          "name": "owner",
          "type": "address"
        }
      ],
      "name": "balanceOf",
      "outputs": [
        {
          "internalType": "uint256",
          "name": "",
          "type": "uint256"
        }
      ],
      "stateMutability": "view",
      "type": "function"
    },
    {
      "inputs": [
        {
          "internalType": "uint256",
          "name": "tokenId",
          "type": "uint256"
        }
      ],
      "name": "createMarketSale",
      "outputs": [],
      "stateMutability": "payable",
      "type": "function"
    },
    {
      "inputs": [
        {
          "internalType": "string",
          "name": "tokenURI",
          "type": "string"
        }
      ],
      "name": "createToken",
      "outputs": [
        {
          "internalType": "uint256",
          "name": "",
          "type": "uint256"
        }
      ],
      "stateMutability": "payable",
      "type": "function"
    },
    {
      "inputs": [],
      "name": "fetchItemsListed",
      "outputs": [
        {
          "components": [
            {
              "internalType": "uint256",
              "name": "tokenId",
              "type": "uint256"
            },
            {
              "internalType": "address payable",
              "name": "artiste",
              "type": "address"
            },
            {
              "internalType": "address payable",
              "name": "owner",
              "type": "address"
            },
            {
              "internalType": "bool",
              "name": "contacted",
              "type": "bool"
            }
          ],
          "internalType": "struct Talent.MarketItem[]",
          "name": "",
          "type": "tuple[]"
        }
      ],
      "stateMutability": "view",
      "type": "function"
    },
    {
      "inputs": [],
      "name": "fetchMarketItems",
      "outputs": [
        {
          "components": [
            {
              "internalType": "uint256",
              "name": "tokenId",
              "type": "uint256"
            },
            {
              "internalType": "address payable",
              "name": "artiste",
              "type": "address"
            },
            {
              "internalType": "address payable",
              "name": "owner",
              "type": "address"
            },
            {
              "internalType": "bool",
              "name": "contacted",
              "type": "bool"
            }
          ],
          "internalType": "struct Talent.MarketItem[]",
          "name": "",
          "type": "tuple[]"
        }
      ],
      "stateMutability": "view",
      "type": "function"
    },
    {
      "inputs": [],
      "name": "fetchMyNFTs",
      "outputs": [
        {
          "components": [
            {
              "internalType": "uint256",
              "name": "tokenId",
              "type": "uint256"
            },
            {
              "internalType": "address payable",
              "name": "artiste",
              "type": "address"
            },
            {
              "internalType": "address payable",
              "name": "owner",
              "type": "address"
            },
            {
              "internalType": "bool",
              "name": "contacted",
              "type": "bool"
            }
          ],
          "internalType": "struct Talent.MarketItem[]",
          "name": "",
          "type": "tuple[]"
        }
      ],
      "stateMutability": "view",
      "type": "function"
    },
    {
      "inputs": [
        {
          "internalType": "uint256",
          "name": "_tokenId",
          "type": "uint256"
        }
      ],
      "name": "fetchNFT",
      "outputs": [
        {
          "components": [
            {
              "internalType": "uint256",
              "name": "tokenId",
              "type": "uint256"
            },
            {
              "internalType": "address payable",
              "name": "artiste",
              "type": "address"
            },
            {
              "internalType": "address payable",
              "name": "owner",
              "type": "address"
            },
            {
              "internalType": "bool",
              "name": "contacted",
              "type": "bool"
            }
          ],
          "internalType": "struct Talent.MarketItem[]",
          "name": "",
          "type": "tuple[]"
        }
      ],
      "stateMutability": "view",
      "type": "function"
    },
    {
      "inputs": [
        {
          "internalType": "uint256",
          "name": "tokenId",
          "type": "uint256"
        }
      ],
      "name": "getApproved",
      "outputs": [
        {
          "internalType": "address",
          "name": "",
          "type": "address"
        }
      ],
      "stateMutability": "view",
      "type": "function"
    },
    {
      "inputs": [],
      "name": "getTotalView",
      "outputs": [
        {
          "internalType": "uint256",
          "name": "",
          "type": "uint256"
        }
      ],
      "stateMutability": "view",
      "type": "function"
    },
    {
      "inputs": [
        {
          "internalType": "address",
          "name": "owner",
          "type": "address"
        },
        {
          "internalType": "address",
          "name": "operator",
          "type": "address"
        }
      ],
      "name": "isApprovedForAll",
      "outputs": [
        {
          "internalType": "bool",
          "name": "",
          "type": "bool"
        }
      ],
      "stateMutability": "view",
      "type": "function"
    },
    {
      "inputs": [],
      "name": "name",
      "outputs": [
        {
          "internalType": "string",
          "name": "",
          "type": "string"
        }
      ],
      "stateMutability": "view",
      "type": "function"
    },
    {
      "inputs": [
        {
          "internalType": "uint256",
          "name": "tokenId",
          "type": "uint256"
        }
      ],
      "name": "ownerOf",
      "outputs": [
        {
          "internalType": "address",
          "name": "",
          "type": "address"
        }
      ],
      "stateMutability": "view",
      "type": "function"
    },
    {
      "inputs": [
        {
          "internalType": "address",
          "name": "from",
          "type": "address"
        },
        {
          "internalType": "address",
          "name": "to",
          "type": "address"
        },
        {
          "internalType": "uint256",
          "name": "tokenId",
          "type": "uint256"
        }
      ],
      "name": "safeTransferFrom",
      "outputs": [],
      "stateMutability": "nonpayable",
      "type": "function"
    },
    {
      "inputs": [
        {
          "internalType": "address",
          "name": "from",
          "type": "address"
        },
        {
          "internalType": "address",
          "name": "to",
          "type": "address"
        },
        {
          "internalType": "uint256",
          "name": "tokenId",
          "type": "uint256"
        },
        {
          "internalType": "bytes",
          "name": "_data",
          "type": "bytes"
        }
      ],
      "name": "safeTransferFrom",
      "outputs": [],
      "stateMutability": "nonpayable",
      "type": "function"
    },
    {
      "inputs": [
        {
          "internalType": "address",
          "name": "operator",
          "type": "address"
        },
        {
          "internalType": "bool",
          "name": "approved",
          "type": "bool"
        }
      ],
      "name": "setApprovalForAll",
      "outputs": [],
      "stateMutability": "nonpayable",
      "type": "function"
    },
    {
      "inputs": [
        {
          "internalType": "bytes4",
          "name": "interfaceId",
          "type": "bytes4"
        }
      ],
      "name": "supportsInterface",
      "outputs": [
        {
          "internalType": "bool",
          "name": "",
          "type": "bool"
        }
      ],
      "stateMutability": "view",
      "type": "function"
    },
    {
      "inputs": [],
      "name": "symbol",
      "outputs": [
        {
          "internalType": "string",
          "name": "",
          "type": "string"
        }
      ],
      "stateMutability": "view",
      "type": "function"
    },
    {
      "inputs": [
        {
          "internalType": "uint256",
          "name": "tokenId",
          "type": "uint256"
        }
      ],
      "name": "tokenURI",
      "outputs": [
        {
          "internalType": "string",
          "name": "",
          "type": "string"
        }
      ],
      "stateMutability": "view",
      "type": "function"
    },
    {
      "inputs": [
        {
          "internalType": "address",
          "name": "from",
          "type": "address"
        },
        {
          "internalType": "address",
          "name": "to",
          "type": "address"
        },
        {
          "internalType": "uint256",
          "name": "tokenId",
          "type": "uint256"
        }
      ],
      "name": "transferFrom",
      "outputs": [],
      "stateMutability": "nonpayable",
      "type": "function"
    }
  ],
  "bytecode": "0x60806040523480156200001157600080fd5b50604080518082018252600d81526c54616c656e74204d757369636160981b602080830191825283518085019094526004845263746d757360e01b908401528151919291620000639160009162000094565b5080516200007990600190602084019062000094565b5050600980546001600160a01b031916331790555062000177565b828054620000a2906200013a565b90600052602060002090601f016020900481019282620000c6576000855562000111565b82601f10620000e157805160ff191683800117855562000111565b8280016001018555821562000111579182015b8281111562000111578251825591602001919060010190620000f4565b506200011f92915062000123565b5090565b5b808211156200011f576000815560010162000124565b600181811c908216806200014f57607f821691505b602082108114156200017157634e487b7160e01b600052602260045260246000fd5b50919050565b6121fe80620001876000396000f3fe60806040526004361061012a5760003560e01c80636352211e116100ab578063b88d4fde1161006f578063b88d4fde14610322578063be9af53614610342578063c87b56dd14610355578063deb1250d14610375578063e985e9c514610395578063ecceb9d5146103de57600080fd5b80636352211e1461028d57806370a08231146102ad57806395d89b41146102cd5780639cc22141146102e2578063a22cb4651461030257600080fd5b8063202e3740116100f2578063202e37401461020257806323b872dd1461021757806342842e0e1461023757806345576f941461025757806345f8fa801461027857600080fd5b806301ffc9a71461012f57806306fdde0314610164578063081812fc14610186578063095ea7b3146101be5780630f08efe0146101e0575b600080fd5b34801561013b57600080fd5b5061014f61014a366004611c3d565b6103f3565b60405190151581526020015b60405180910390f35b34801561017057600080fd5b50610179610445565b60405161015b9190611cb2565b34801561019257600080fd5b506101a66101a1366004611cc5565b6104d7565b6040516001600160a01b03909116815260200161015b565b3480156101ca57600080fd5b506101de6101d9366004611cfa565b610564565b005b3480156101ec57600080fd5b506101f561067a565b60405161015b9190611d24565b34801561020e57600080fd5b506101f56107f6565b34801561022357600080fd5b506101de610232366004611d96565b6109bd565b34801561024357600080fd5b506101de610252366004611d96565b6109ee565b61026a610265366004611e5e565b610a09565b60405190815260200161015b565b34801561028457600080fd5b506101f5610a43565b34801561029957600080fd5b506101a66102a8366004611cc5565b610c0a565b3480156102b957600080fd5b5061026a6102c8366004611ea7565b610c81565b3480156102d957600080fd5b50610179610d08565b3480156102ee57600080fd5b5061026a6102fd366004611cc5565b610d17565b34801561030e57600080fd5b506101de61031d366004611ec2565b610d81565b34801561032e57600080fd5b506101de61033d366004611efe565b610d90565b6101de610350366004611cc5565b610dc8565b34801561036157600080fd5b50610179610370366004611cc5565b610df6565b34801561038157600080fd5b506101f5610390366004611cc5565b610f6d565b3480156103a157600080fd5b5061014f6103b0366004611f7a565b6001600160a01b03918216600090815260056020908152604080832093909416825291909152205460ff1690565b3480156103ea57600080fd5b5061026a611128565b60006001600160e01b031982166380ac58cd60e01b148061042457506001600160e01b03198216635b5e139f60e01b145b8061043f57506301ffc9a760e01b6001600160e01b03198316145b92915050565b60606000805461045490611fad565b80601f016020809104026020016040519081016040528092919081815260200182805461048090611fad565b80156104cd5780601f106104a2576101008083540402835291602001916104cd565b820191906000526020600020905b8154815290600101906020018083116104b057829003601f168201915b5050505050905090565b60006104e282611134565b6105485760405162461bcd60e51b815260206004820152602c60248201527f4552433732313a20617070726f76656420717565727920666f72206e6f6e657860448201526b34b9ba32b73a103a37b5b2b760a11b60648201526084015b60405180910390fd5b506000908152600460205260409020546001600160a01b031690565b600061056f82610c0a565b9050806001600160a01b0316836001600160a01b031614156105dd5760405162461bcd60e51b815260206004820152602160248201527f4552433732313a20617070726f76616c20746f2063757272656e74206f776e656044820152603960f91b606482015260840161053f565b336001600160a01b03821614806105f957506105f981336103b0565b61066b5760405162461bcd60e51b815260206004820152603860248201527f4552433732313a20617070726f76652063616c6c6572206973206e6f74206f7760448201527f6e6572206e6f7220617070726f76656420666f7220616c6c0000000000000000606482015260840161053f565b6106758383611151565b505050565b6060600061068760075490565b9050600061069460075490565b90506000808267ffffffffffffffff8111156106b2576106b2611dd2565b60405190808252806020026020018201604052801561070457816020015b6040805160808101825260008082526020808301829052928201819052606082015282526000199092019101816106d05790505b50905060005b848110156107ed5730600a6000610722846001611ffe565b81526020810191909152604001600020600201546001600160a01b031614156107db576000610752826001611ffe565b6000818152600a602090815260409182902082516080810184528154815260018201546001600160a01b0390811693820193909352600282015492831693810193909352600160a01b90910460ff16151560608301528551929350918590879081106107c0576107c0612016565b60209081029190910101526107d6600186611ffe565b945050505b806107e58161202c565b91505061070a565b50949350505050565b6060600061080360075490565b905060008060005b838110156108665733600a6000610823846001611ffe565b81526020810191909152604001600020600201546001600160a01b0316141561085457610851600184611ffe565b92505b8061085e8161202c565b91505061080b565b5060008267ffffffffffffffff81111561088257610882611dd2565b6040519080825280602002602001820160405280156108d457816020015b6040805160808101825260008082526020808301829052928201819052606082015282526000199092019101816108a05790505b50905060005b848110156107ed5733600a60006108f2846001611ffe565b81526020810191909152604001600020600201546001600160a01b031614156109ab576000610922826001611ffe565b6000818152600a602090815260409182902082516080810184528154815260018201546001600160a01b0390811693820193909352600282015492831693810193909352600160a01b90910460ff161515606083015285519293509185908790811061099057610990612016565b60209081029190910101526109a6600186611ffe565b945050505b806109b58161202c565b9150506108da565b6109c733826111bf565b6109e35760405162461bcd60e51b815260040161053f90612047565b6106758383836112a8565b61067583838360405180602001604052806000815250610d90565b6000610a19600780546001019055565b6000610a2460075490565b9050610a303382611444565b610a3a8184611577565b61043f81611602565b60606000610a5060075490565b905060008060005b83811015610ab35733600a6000610a70846001611ffe565b81526020810191909152604001600020600101546001600160a01b03161415610aa157610a9e600184611ffe565b92505b80610aab8161202c565b915050610a58565b5060008267ffffffffffffffff811115610acf57610acf611dd2565b604051908082528060200260200182016040528015610b2157816020015b604080516080810182526000808252602080830182905292820181905260608201528252600019909201910181610aed5790505b50905060005b848110156107ed5733600a6000610b3f846001611ffe565b81526020810191909152604001600020600101546001600160a01b03161415610bf8576000610b6f826001611ffe565b6000818152600a602090815260409182902082516080810184528154815260018201546001600160a01b0390811693820193909352600282015492831693810193909352600160a01b90910460ff1615156060830152855192935091859087908110610bdd57610bdd612016565b6020908102919091010152610bf3600186611ffe565b945050505b80610c028161202c565b915050610b27565b6000818152600260205260408120546001600160a01b03168061043f5760405162461bcd60e51b815260206004820152602960248201527f4552433732313a206f776e657220717565727920666f72206e6f6e657869737460448201526832b73a103a37b5b2b760b91b606482015260840161053f565b60006001600160a01b038216610cec5760405162461bcd60e51b815260206004820152602a60248201527f4552433732313a2062616c616e636520717565727920666f7220746865207a65604482015269726f206164647265737360b01b606482015260840161053f565b506001600160a01b031660009081526003602052604090205490565b60606001805461045490611fad565b600080610d2360085490565b90506000805b82811015610d795784600b6000610d41846001611ffe565b8152602001908152602001600020600001541415610d6757610d64600183611ffe565b91505b80610d718161202c565b915050610d29565b509392505050565b610d8c3383836116d9565b5050565b610d9a33836111bf565b610db65760405162461bcd60e51b815260040161053f90612047565b610dc2848484846117a8565b50505050565b6000818152600a60205260409020600201805460ff60a01b1916600160a01b179055610df3816117db565b50565b6060610e0182611134565b610e675760405162461bcd60e51b815260206004820152603160248201527f45524337323155524953746f726167653a2055524920717565727920666f72206044820152703737b732bc34b9ba32b73a103a37b5b2b760791b606482015260840161053f565b60008281526006602052604081208054610e8090611fad565b80601f0160208091040260200160405190810160405280929190818152602001828054610eac90611fad565b8015610ef95780601f10610ece57610100808354040283529160200191610ef9565b820191906000526020600020905b815481529060010190602001808311610edc57829003601f168201915b505050505090506000610f1760408051602081019091526000815290565b9050805160001415610f2a575092915050565b815115610f5c578082604051602001610f44929190612098565b60405160208183030381529060405292505050919050565b610f65846118ab565b949350505050565b60606000610f7a60075490565b905060008060005b83811015610fd25785600a6000610f9a846001611ffe565b8152602001908152602001600020600001541415610fc057610fbd600184611ffe565b92505b80610fca8161202c565b915050610f82565b5060008267ffffffffffffffff811115610fee57610fee611dd2565b60405190808252806020026020018201604052801561104057816020015b60408051608081018252600080825260208083018290529282018190526060820152825260001990920191018161100c5790505b50905060005b8481101561111e5786600a600061105e846001611ffe565b815260200190815260200160002060000154141561110c576000611083826001611ffe565b6000818152600a602090815260409182902082516080810184528154815260018201546001600160a01b0390811693820193909352600282015492831693810193909352600160a01b90910460ff16151560608301528551929350918590879081106110f1576110f1612016565b6020908102919091010152611107600186611ffe565b945050505b806111168161202c565b915050611046565b5095945050505050565b60008061043f60085490565b6000908152600260205260409020546001600160a01b0316151590565b600081815260046020526040902080546001600160a01b0319166001600160a01b038416908117909155819061118682610c0a565b6001600160a01b03167f8c5be1e5ebec7d5bd14f71427d1e84f3dd0314c0f7b2291e5b200ac8c7c3b92560405160405180910390a45050565b60006111ca82611134565b61122b5760405162461bcd60e51b815260206004820152602c60248201527f4552433732313a206f70657261746f7220717565727920666f72206e6f6e657860448201526b34b9ba32b73a103a37b5b2b760a11b606482015260840161053f565b600061123683610c0a565b9050806001600160a01b0316846001600160a01b0316148061127d57506001600160a01b0380821660009081526005602090815260408083209388168352929052205460ff165b80610f655750836001600160a01b0316611296846104d7565b6001600160a01b031614949350505050565b826001600160a01b03166112bb82610c0a565b6001600160a01b03161461131f5760405162461bcd60e51b815260206004820152602560248201527f4552433732313a207472616e736665722066726f6d20696e636f72726563742060448201526437bbb732b960d91b606482015260840161053f565b6001600160a01b0382166113815760405162461bcd60e51b8152602060048201526024808201527f4552433732313a207472616e7366657220746f20746865207a65726f206164646044820152637265737360e01b606482015260840161053f565b61138c600082611151565b6001600160a01b03831660009081526003602052604081208054600192906113b59084906120c7565b90915550506001600160a01b03821660009081526003602052604081208054600192906113e3908490611ffe565b909155505060008181526002602052604080822080546001600160a01b0319166001600160a01b0386811691821790925591518493918716917fddf252ad1be2c89b69c2b068fc378daa952ba7f163c4a11628f55a4df523b3ef91a4505050565b6001600160a01b03821661149a5760405162461bcd60e51b815260206004820181905260248201527f4552433732313a206d696e7420746f20746865207a65726f2061646472657373604482015260640161053f565b6114a381611134565b156114f05760405162461bcd60e51b815260206004820152601c60248201527f4552433732313a20746f6b656e20616c7265616479206d696e74656400000000604482015260640161053f565b6001600160a01b0382166000908152600360205260408120805460019290611519908490611ffe565b909155505060008181526002602052604080822080546001600160a01b0319166001600160a01b03861690811790915590518392907fddf252ad1be2c89b69c2b068fc378daa952ba7f163c4a11628f55a4df523b3ef908290a45050565b61158082611134565b6115e35760405162461bcd60e51b815260206004820152602e60248201527f45524337323155524953746f726167653a2055524920736574206f66206e6f6e60448201526d32bc34b9ba32b73a103a37b5b2b760911b606482015260840161053f565b6000828152600660209081526040909120825161067592840190611b8e565b6040805160808101825282815233602080830182815230848601818152600060608701818152898252600a909552969096209451855590516001850180546001600160a01b039283166001600160a01b031990911617905594516002909401805492511515600160a01b026001600160a81b03199093169490951693909317179092556116909190836112a8565b6040805133815230602082015260009181019190915281907fac1bd62278cac1e3927d9af6d75c2a00c32db78ed0bb3a721d009050f786b7e8906060015b60405180910390a250565b816001600160a01b0316836001600160a01b0316141561173b5760405162461bcd60e51b815260206004820152601960248201527f4552433732313a20617070726f766520746f2063616c6c657200000000000000604482015260640161053f565b6001600160a01b03838116600081815260056020908152604080832094871680845294825291829020805460ff191686151590811790915591519182527f17307eab39ab6107e8899845ad3d59bd9653f200f220920489ca2b5937696c31910160405180910390a3505050565b6117b38484846112a8565b6117bf84848484611983565b610dc25760405162461bcd60e51b815260040161053f906120de565b6117e9600880546001019055565b60408051608081018252828152336020808301828152308486018181526001606080880182815260008b8152600b88528a902098518955945188830180546001600160a01b039283166001600160a01b031990911617905592516002909801805495511515600160a01b026001600160a81b031990961698909316979097179390931790558551938452918301919091529281019290925282917fd152fd0be0c9c419d7513b57ea73deeb1ec73ffaa531735689515152f1efbdfb91016116ce565b60606118b682611134565b61191a5760405162461bcd60e51b815260206004820152602f60248201527f4552433732314d657461646174613a2055524920717565727920666f72206e6f60448201526e3732bc34b9ba32b73a103a37b5b2b760891b606482015260840161053f565b600061193160408051602081019091526000815290565b90506000815111611951576040518060200160405280600081525061197c565b8061195b84611a90565b60405160200161196c929190612098565b6040516020818303038152906040525b9392505050565b60006001600160a01b0384163b15611a8557604051630a85bd0160e11b81526001600160a01b0385169063150b7a02906119c7903390899088908890600401612130565b602060405180830381600087803b1580156119e157600080fd5b505af1925050508015611a11575060408051601f3d908101601f19168201909252611a0e9181019061216d565b60015b611a6b573d808015611a3f576040519150601f19603f3d011682016040523d82523d6000602084013e611a44565b606091505b508051611a635760405162461bcd60e51b815260040161053f906120de565b805181602001fd5b6001600160e01b031916630a85bd0160e11b149050610f65565b506001949350505050565b606081611ab45750506040805180820190915260018152600360fc1b602082015290565b8160005b8115611ade5780611ac88161202c565b9150611ad79050600a836121a0565b9150611ab8565b60008167ffffffffffffffff811115611af957611af9611dd2565b6040519080825280601f01601f191660200182016040528015611b23576020820181803683370190505b5090505b8415610f6557611b386001836120c7565b9150611b45600a866121b4565b611b50906030611ffe565b60f81b818381518110611b6557611b65612016565b60200101906001600160f81b031916908160001a905350611b87600a866121a0565b9450611b27565b828054611b9a90611fad565b90600052602060002090601f016020900481019282611bbc5760008555611c02565b82601f10611bd557805160ff1916838001178555611c02565b82800160010185558215611c02579182015b82811115611c02578251825591602001919060010190611be7565b50611c0e929150611c12565b5090565b5b80821115611c0e5760008155600101611c13565b6001600160e01b031981168114610df357600080fd5b600060208284031215611c4f57600080fd5b813561197c81611c27565b60005b83811015611c75578181015183820152602001611c5d565b83811115610dc25750506000910152565b60008151808452611c9e816020860160208601611c5a565b601f01601f19169290920160200192915050565b60208152600061197c6020830184611c86565b600060208284031215611cd757600080fd5b5035919050565b80356001600160a01b0381168114611cf557600080fd5b919050565b60008060408385031215611d0d57600080fd5b611d1683611cde565b946020939093013593505050565b602080825282518282018190526000919060409081850190868401855b82811015611d8957815180518552868101516001600160a01b039081168887015286820151168686015260609081015115159085015260809093019290850190600101611d41565b5091979650505050505050565b600080600060608486031215611dab57600080fd5b611db484611cde565b9250611dc260208501611cde565b9150604084013590509250925092565b634e487b7160e01b600052604160045260246000fd5b600067ffffffffffffffff80841115611e0357611e03611dd2565b604051601f8501601f19908116603f01168101908282118183101715611e2b57611e2b611dd2565b81604052809350858152868686011115611e4457600080fd5b858560208301376000602087830101525050509392505050565b600060208284031215611e7057600080fd5b813567ffffffffffffffff811115611e8757600080fd5b8201601f81018413611e9857600080fd5b610f6584823560208401611de8565b600060208284031215611eb957600080fd5b61197c82611cde565b60008060408385031215611ed557600080fd5b611ede83611cde565b915060208301358015158114611ef357600080fd5b809150509250929050565b60008060008060808587031215611f1457600080fd5b611f1d85611cde565b9350611f2b60208601611cde565b925060408501359150606085013567ffffffffffffffff811115611f4e57600080fd5b8501601f81018713611f5f57600080fd5b611f6e87823560208401611de8565b91505092959194509250565b60008060408385031215611f8d57600080fd5b611f9683611cde565b9150611fa460208401611cde565b90509250929050565b600181811c90821680611fc157607f821691505b60208210811415611fe257634e487b7160e01b600052602260045260246000fd5b50919050565b634e487b7160e01b600052601160045260246000fd5b6000821982111561201157612011611fe8565b500190565b634e487b7160e01b600052603260045260246000fd5b600060001982141561204057612040611fe8565b5060010190565b60208082526031908201527f4552433732313a207472616e736665722063616c6c6572206973206e6f74206f6040820152701ddb995c881b9bdc88185c1c1c9bdd9959607a1b606082015260800190565b600083516120aa818460208801611c5a565b8351908301906120be818360208801611c5a565b01949350505050565b6000828210156120d9576120d9611fe8565b500390565b60208082526032908201527f4552433732313a207472616e7366657220746f206e6f6e20455243373231526560408201527131b2b4bb32b91034b6b83632b6b2b73a32b960711b606082015260800190565b6001600160a01b038581168252841660208201526040810183905260806060820181905260009061216390830184611c86565b9695505050505050565b60006020828403121561217f57600080fd5b815161197c81611c27565b634e487b7160e01b600052601260045260246000fd5b6000826121af576121af61218a565b500490565b6000826121c3576121c361218a565b50069056fea26469706673582212209d79596dcdbe474cd0aedb1cca53f674f35f53460db43763ce7e2325a2a10b2e64736f6c63430008090033",
  "linkReferences": {},
  "deployedLinkReferences": {}
}